:020000040000fa
:080000000002040000000000f2
:020000040000fa
:0400080008030000e9
:020000040000fa
:04000c0008030000e5
:020000040000fa
:0400100008030000e1
:020000040000fa
:0400140008030000dd
:020000040000fa
:0400180008030000d9
:020000040000fa
:04001c0008030000d5
:020000040000fa
:0400200008030000d1
:020000040000fa
:0400240008030000cd
:020000040000fa
:0400280008030000c9
:020000040000fa
:04002c0008030000c5
:020000040000fa
:0400300008030000c1
:020000040000fa
:04003400d4020000f2
:020000040000fa
:0400380008030000b9
:020000040000fa
:04003c0008030000b5
:020000040000fa
:0400400008030000b1
:020000040000fa
:0400440008030000ad
:020000040000fa
:0400480008030000a9
:020000040000fa
:04004c0008030000a5
:020000040000fa
:0400500008030000a1
:020000040000fa
:04005400080300009d
:020000040000fa
:040058000803000099
:020000040000fa
:04005c000803000095
:020000040000fa
:040060000803000091
:020000040000fa
:04006400080300008d
:020000040000fa
:040068000803000089
:020000040000fa
:04006c000803000085
:020000040000fa
:040070000803000081
:020000040000fa
:04007400080300007d
:020000040000fa
:040078000803000079
:020000040000fa
:04007c000803000075
:020000040000fa
:040080000803000071
:020000040000fa
:04008400080300006d
:020000040000fa
:040088000803000069
:020000040000fa
:04008c000803000065
:020000040000fa
:040090000803000061
:020000040000fa
:04009400080300005d
:020000040000fa
:040098000803000059
:020000040000fa
:04009c000803000055
:020000040000fa
:0400a0000803000051
:020000040000fa
:0400a400080300004d
:020000040000fa
:0400a8000803000049
:020000040000fa
:0400ac000803000045
:020000040000fa
:0400b0000803000041
:020000040000fa
:0400b400080300003d
:020000040000fa
:0400b8000803000039
:020000040000fa
:0400bc000803000035
:020000040000fa
:0400c0000803000031
:020000040000fa
:0400c400080300002d
:020000040000fa
:0400c8000803000029
:020000040000fa
:0400cc000803000025
:020000040000fa
:0400d0000803000021
:020000040000fa
:0400d400080300001d
:020000040000fa
:0400d8000803000019
:020000040000fa
:0400dc000803000015
:020000040000fa
:0400e0000803000011
:020000040000fa
:0400e400080300000d
:020000040000fa
:0400e8000803000009
:020000040000fa
:0400ec000803000005
:020000040000fa
:0400f0000803000001
:020000040000fa
:0400f40008030000fd
:020000040000fa
:0400f80008030000f9
:020000040000fa
:0400fc0008030000f5
:020000040000fa
:0401000008030000f0
:020000040000fa
:0401040008030000ec
:020000040000fa
:0401080008030000e8
:020000040000fa
:04010c0008030000e4
:020000040000fa
:0401100008030000e0
:020000040000fa
:0401140008030000dc
:020000040000fa
:0401180008030000d8
:020000040000fa
:04011c0008030000d4
:020000040000fa
:0401200008030000d0
:020000040000fa
:0401240008030000cc
:020000040000fa
:0401280008030000c8
:020000040000fa
:04012c0008030000c4
:020000040000fa
:0401300008030000c0
:020000040000fa
:0401340008030000bc
:020000040000fa
:0401380008030000b8
:020000040000fa
:04013c0008030000b4
:020000040000fa
:0401400008030000b0
:020000040000fa
:0401440008030000ac
:020000040000fa
:0401480008030000a8
:020000040000fa
:04014c0008030000a4
:020000040000fa
:0401500008030000a0
:020000040000fa
:04015400080300009c
:020000040000fa
:040158000803000098
:020000040000fa
:04015c000803000094
:020000040000fa
:040160000803000090
:020000040000fa
:04016400080300008c
:020000040000fa
:040168000803000088
:020000040000fa
:04016c000803000084
:020000040000fa
:040170000803000080
:020000040000fa
:04017400080300007c
:020000040000fa
:040178000803000078
:020000040000fa
:04017c000803000074
:020000040000fa
:040180000803000070
:020000040000fa
:04018400080300006c
:020000040000fa
:040188000803000068
:020000040000fa
:04018c000803000064
:020000040000fa
:040190000803000060
:020000040000fa
:04019400080300005c
:020000040000fa
:040198000803000058
:020000040000fa
:04019c000803000054
:020000040000fa
:0401a0000803000050
:020000040000fa
:0401a400080300004c
:020000040000fa
:0401a8000803000048
:020000040000fa
:0401ac000803000044
:020000040000fa
:0402080008030000e7
:020000040000fa
:04020c0008030000e3
:020000040000fa
:0402100008030000df
:020000040000fa
:0402140008030000db
:020000040000fa
:0402180008030000d7
:020000040000fa
:04021c0008030000d3
:020000040000fa
:0402200008030000cf
:020000040000fa
:0402240008030000cb
:020000040000fa
:0402280008030000c7
:020000040000fa
:04022c0008030000c3
:020000040000fa
:0402300008030000bf
:020000040000fa
:0402340008030000bb
:020000040000fa
:0402380008030000b7
:020000040000fa
:04023c0008030000b3
:020000040000fa
:0402400008030000af
:020000040000fa
:0402440008030000ab
:020000040000fa
:0402480008030000a7
:020000040000fa
:04024c0008030000a3
:020000040000fa
:04025000080300009f
:020000040000fa
:04025400080300009b
:020000040000fa
:040258000803000097
:020000040000fa
:04025c000803000093
:020000040000fa
:04026000080300008f
:020000040000fa
:04026400080300008b
:020000040000fa
:040268000803000087
:020000040000fa
:04026c000803000083
:020000040000fa
:04027000080300007f
:020000040000fa
:04027400080300007b
:020000040000fa
:040278000803000077
:020000040000fa
:04027c000803000073
:020000040000fa
:04028000080300006f
:020000040000fa
:04028400080300006b
:020000040000fa
:040288000803000067
:020000040000fa
:04028c000803000063
:020000040000fa
:04029000080300005f
:020000040000fa
:04029400080300005b
:020000040000fa
:040298000803000057
:020000040000fa
:04029c000803000053
:020000040000fa
:0402a000080300004f
:020000040000fa
:0402a400080300004b
:020000040000fa
:0402a8000803000047
:020000040000fa
:0402ac000803000043
:020000040000fa
:0402b000080300003f
:020000040000fa
:0402b400080300003b
:020000040000fa
:0402b8000803000037
:020000040000fa
:0402bc000803000033
:020000040000fa
:0402c000080300002f
:020000040000fa
:0402c400080300002b
:020000040000fa
:0402c8000803000027
:020000040000fa
:0402cc000803000023
:020000040000fa
:0402d000080300001f
:020000040000fa
:0402d400080300001b
:020000040000fa
:0402d8000803000017
:020000040000fa
:0402dc000803000013
:020000040000fa
:0402e000080300000f
:020000040000fa
:0402e400080300000b
:020000040000fa
:0402e8000803000007
:020000040000fa
:0402ec000803000003
:020000040000fa
:0402f00008030000ff
:020000040000fa
:0402f40008030000fb
:020000040000fa
:0402f80008030000f7
:020000040000fa
:0402fc0008030000f3
:020000040000fa
:0403000008030000ee
:020000040000fa
:0403040008030000ea
:020000040000fa
:0403080008030000e6
:020000040000fa
:04030c0008030000e2
:020000040000fa
:0403100008030000de
:020000040000fa
:0403140008030000da
:020000040000fa
:0403180008030000d6
:020000040000fa
:04031c0008030000d2
:020000040000fa
:0403200008030000ce
:020000040000fa
:0403240008030000ca
:020000040000fa
:0403280008030000c6
:020000040000fa
:04032c0008030000c2
:020000040000fa
:0403300008030000be
:020000040000fa
:0403340008030000ba
:020000040000fa
:0403380008030000b6
:020000040000fa
:04033c0008030000b2
:020000040000fa
:0403400008030000ae
:020000040000fa
:0403440008030000aa
:020000040000fa
:0403480008030000a6
:020000040000fa
:04034c0008030000a2
:020000040000fa
:04035000080300009e
:020000040000fa
:04035400080300009a
:020000040000fa
:040358000803000096
:020000040000fa
:04035c000803000092
:020000040000fa
:04036000080300008e
:020000040000fa
:04036400080300008a
:020000040000fa
:040368000803000086
:020000040000fa
:04036c000803000082
:020000040000fa
:04037000080300007e
:020000040000fa
:04037400080300007a
:020000040000fa
:040378000803000076
:020000040000fa
:04037c000803000072
:020000040000fa
:04038000080300006e
:020000040000fa
:04038400080300006a
:020000040000fa
:040388000803000066
:020000040000fa
:04038c000803000062
:020000040000fa
:04039000080300005e
:020000040000fa
:04039400080300005a
:020000040000fa
:040398000803000056
:020000040000fa
:04039c000803000052
:020000040000fa
:0403a000080300004e
:020000040000fa
:0403a400080300004a
:020000040000fa
:0403a8000803000046
:020000040000fa
:0403ac000803000042
:020000040000fa
:100400006f8b20000eff20000e018800000000000e
:10041000000020000000e000020032000001200087
:100420002002880014000700f00007000000e00030
:1004300003003a0060e520000100200002003700c0
:100440000000200001002000810f70000100320038
:1004500014000700000020000000e000020032004d
:100460000000020000000000020c0200000000007a
:100470000040da000000fe004440a900e004200033
:100480000000e0000300320000002000a00188000e
:100490004440a800000006008a1f78008b1f7800e7
:1004a0000000060091018800800478000000eb0045
:1004b0001a003700e284440032a0b4009905ba0063
:1004c000e284440032a0b4009906ba00e2844400f9
:1004d00032a0b4000006eb00476fde00fd07b2005b
:1004e000636ce10003003a00ebff07000000eb0043
:1004f0000a003700606ce10004003a00005deb0088
:100500008b05e900fdff3e00040037006168e10053
:10051000010032000086eb000b00070019c7ba008b
:100520001905ba000e04e00003003a000a00e000da
:10053000e0ff3a0000000600fe07b2009e018800be
:100540008a047800f5ff3700395dba008b05e900b1
:100550000c003200295dba008b05e900080032006a
:100560000c00e00003003a00e284440032a0b40032
:10057000f5ff370019ddba008b05e900faff3a00f4
:100580008904e800e184440032a0b40000000600c1
:10059000000000000000000000000000000000005b
:1005a000000000000000000000a0fe003600f8007f
:1005b000849fbe00869fbe003400f8000400200027
:1005c000a40188000000fa001b0507001040880005
:1005d0001140800040408000808f500002003a00af
:1005e000104080000040880010408000404088009b
:1005f0008460a9000080fa003400f9004f03be00b7
:100600004f02be003600f9000080fe0000400600e8
:100610000040da000000fe000a00fa00110020008d
:10062000b1bf9f00c0bf9f006a805700350407001c
:100630004fb897000080fa00000006000a00fa0098
:10064000e20f500034003e0030408000e10f5000c7
:1006500003003200e20f500011003a000c00370096
:10066000032220000300e00001003a000040da000d
:100670002002e200020035002822ef0021e2a8005b
:100680002342ab000d003a002342a8000b003700c4
:10069000032320000300e00001003a000040da00dc
:1006a0003002e200020035003822ef0031e2a800fb
:1006b0003342ab0001003a003342a80082017800c7
:1006c0000b0037003102fb00e10f500004003a003c
:1006d0002322ab00feff3a002411880003003700fc
:1006e0003322ab00feff3a00a41188008301e90029
:1006f0000300e000f3ff3a00e10f500003003a006e
:100700002302ab00feff32000b0037003302ab00c8
:10071000feff32000800370033002000b3bf9f0007
:10072000c0bf9f00d1bf9f00e2bf9f006a805700fb
:10073000f60307006fb99700020078000080fa0006
:10074000000006000a00fa0051002000b1bf9f001f
:10075000c0bf9f006a805700ee0307005fb8970094
:100760000080fa0000000600889fbe008004780028
:10077000a04580000000e00004003a000e000700e1
:100780000084eb000000e00008003500a845800070
:100790000900e000050032000900440006000700df
:1007a0000000e00001003d000084eb00080078003c
:1007b0004f04be0000000600800078000100e00049
:1007c00003003a0000002000a0458800000005005a
:1007d0000080eb0002002000828f500002003e00eb
:1007e000a14588000000eb000000060000000500a5
:1007f0006022b800060220000000d0008180d200f4
:100800000482d2008582d2000000a00002025200c1
:1008100083825a00030031000202420083824a00b0
:100820000000a1000603e900f3ff3a000000060003
:10083000889fbe00000478000100780082047800e0
:100840008801780009017800110020000e000700df
:10085000890f5000010032000004eb00080078000e
:100860004f04be00000006000000fa00e8815700b7
:100870004fb99700218320008041200057010700d5
:100880000080fa0000000600889fbe008a9fbe001c
:100890008c9fbe008e1f780000067800010478004f
:1008a00002007800830478000881b900020778000c
:1008b0000200e000420032000800e0004100320087
:1008c00082057800c900900069009000808f500078
:1008d0000400390009007800500007000000e00023
:1008e0002900350000402000190060000a00320095
:1008f0000b017800a10020000c00780036000700f2
:10090000800678000d00e000060032006105160048
:100910000a854600040037000b0578008006eb00ce
:10092000010037000b05780049009000e9009000b5
:10093000808050008a8f500002003100010578004d
:100940008006eb000a0178008c0078002c0007007c
:100950008a855500490090000a004000c0049800b4
:100960000d00e0000400320009007800d500070007
:100970000000e00004003a000b00e000020032003a
:100980000a064600cfff37000080200019006000f3
:100990000200320009007800ca00070000c02000f1
:1009a000190060000200320049009000e004980045
:1009b0008b055700110009008885d8000100370019
:1009c0000000eb004f0778004f06be004f05be0049
:1009d0004f04be000000060003003700b0cf100037
:1009e000050032000201e900800178000200e00009
:1009f000faff3a000000050003007800000006003e
:100a00008001780002003700b15978000201e90046
:100a10000200e000fcff3a0000000600889fbe00d4
:100a20008a1f780000047800c800900068019000d8
:100a30000000eb00828f50003c0039001800780065
:100a40002200290002016000e20f5100070032007d
:100a5000012024000000e00001003d0001202000f2
:100a6000008c70000080eb00300037000200260090
:100a700002006000820f500009003a003800900028
:100a8000808f500006003900080078008d000700b4
:100a9000800078000080eb000100e00023003a00b5
:100aa0001805780000c020000000650018003a001a
:100ab000a80490006002200008004000808f5400cd
:100ac00013003a00002020000a02070020049800ca
:100ad0000000e00005003a0029049800490498004d
:100ae0008904e80039049800080037000a60a00073
:100af0000a0c78004004980001202000808040000b
:100b000031049800400c9800500c98000c0007002d
:100b1000280090005004980038009000600498006d
:100b200000002600180c70000000eb004f05780054
:100b30004f04be0000000600206420009b00370028
:100b4000881f7800088b20001804e00003003a009a
:100b5000f9ff070020c0b300004c78004f04780074
:100b600000000600889fbe0000047800080078009e
:100b70005400070080047800000420001800600082
:100b80000200320028009000750107000000eb0011
:100b900020049800384090000004e0000500350073
:100ba0000000fb009cfe07000000e0000100320096
:100bb0008084eb00181090000000e0000800320074
:100bc000e0fe07000000e000010032008084eb003e
:100bd00018109000620107000000eb00101498004c
:100be0000008200018006000150032000001eb0032
:100bf0006000b800238820000202d00063027a005f
:100c0000880f520005003a00000040008180480033
:100c1000008041000008eb00060037006100400042
:100c2000e08048000201e800e80f5000e08f580023
:100c3000f0ff3a0008007800490107000e00370075
:100c4000000c780000c0eb003044980060022000e7
:100c500008004000200498004004980050049800c8
:100c6000400c980060049800500c980070049800a4
:100c700076004400000c9800090078004f04be0084
:100c800000000600881f78000004eb006140b800f7
:100c9000e2ff2f00f3ff2f00a002070002892000cf
:100ca000620078000000e00001003200adff0700a4
:100cb0000804e800e80f5400f4ff3a004f047800fd
:100cc00000000600889fbe00000478000800e000d5
:100cd0000e003a008004eb008800d000208820003d
:100ce000610078000000e00004003200f5ff07001a
:100cf0000000e00001003d008084eb000804e800f3
:100d0000e80f5400f4ff3a002500370000002200ed
:100d1000180060008004eb0021003200a80490005d
:100d20000f00370009015100384090000000fb001f
:100d30008900780041fe07000000e00007003c0049
:100d4000280090004004980060049800500c98001f
:100d50001890a0008084eb001100370080844400cc
:100d600048019000828f5400eeff39002800900067
:100d7000400498009800780002c0200002816000c2
:100d800001003a003800900001e8a30002003200a0
:100d90006004980001003700500c98008004eb00bc
:100da000090078004f04be0000000600010020008a
:100db0000100e00008003200010080000100e000b6
:100dc000050032008100e900010088008100d000a8
:100dd0000200800000b17800000006006200fa0006
:100de000889fbe008a1f7800000578008104780083
:100df000020478008300780080f92f000f00400083
:100e00003e0207009a979f00a9979f000000eb0001
:100e1000b09f9f001885fb008a04fb000a05ea00ca
:100e20004f55de0050022000808f54000d0032002c
:100e3000e10f55000b003a000a01780088007800a5
:100e40002f9097009f91970003000100a0979f00ab
:100e50000000e0008e0032003f9897000000e8009c
:100e6000b09f9f000a04440050022000808f54006d
:100e7000040032000900e000e6ff3a003f989700c6
:100e8000840037000000eb00909f9f00809f9f0030
:100e9000f0979f00e0979f00d0979f00c0979f001a
:100ea00007003700618a2000010050000000400068
:100eb000a189200061007800df9897000100700090
:100ec000d09f9f0088047800090478003845780096
:100ed0008a00fb00608a2000300107000000e0006b
:100ee000f0ff3a00a1c2b300814f55000e003a0056
:100ef000cf8897000180e900c08f9f001000780024
:100f0000c09f9f000000e00005003d000000ea00d7
:100f1000c09f9f005f9897000020a000d09f9f0077
:100f20000904e8000f003700c09f9f000000eb009d
:100f300005003700f2ff2700820f50000200320048
:100f40006a01b90002804000090478008804780032
:100f5000b900fb000103b100e98f5000f5ff360036
:100f6000c09f9f00e0c2b300984f10000200320003
:100f70000080eb0019003700a0c2b300d84f10006a
:100f800007003a00cf8897000180e900c08f9f00da
:100f900010007800a09f9f000804e80010003700b0
:100fa0000000eb00a09f9f0088007800050037003c
:100fb000f3ff2700830f5000020032006a02b900dd
:100fc0000400410001047800880078003101fb0032
:100fd0000203b100e90f5100f5ff3600a09f9f000a
:100fe000984478008900fb0020892000eb0007006e
:100ff0000000e000020032000804e80001003700b1
:101000008044eb00c97f9f0080c6b30080cf5400ae
:1010100004003a0098cf14000a003a0066405000dd
:1010200006003700c0c6b30080cf540005003a0068
:1010300098cf140003003a0065404000c07f9f0035
:101040000804e8001801fb00e3fb2f008f8141003a
:1010500081f92f008f804000a0f92f000f00400081
:10106000100007000000e00009003a00e1fb2f003b
:101070008f804000a0f92f000f004000e300070020
:101080000000e000020035000804e80061ff3700be
:101090000080eb004f0578004f04be000080fa008e
:1010a00000000600889fbe008a1f780000047800b8
:1010b00030c5b300804f51000800320030c7b30084
:1010c000804f51000500320051c2b30078009000fb
:1010d000814f510017003a00140037001180e900d9
:1010e00080087800100578006a049800d80c9000f9
:1010f0000900e00004003d000a007800b30007008a
:101100008004780007003700090178008000eb00b8
:101110000a00780030fe07000000e0000100320005
:101120008a045000190c9800090037008271780079
:1011300005003700808141000204e00001003a0010
:1011400001417800824978000000e80070049800ae
:101150000000eb004f0578004f04be0000000600c1
:101160000000e0002f003200c0017800e38f510042
:101170002c0036000308a3002a003a0071458000c5
:101180000100e00002003200810f50000400310035
:101190001100980070458800160037008200780022
:1011a000110190000200e00002003200800f5100a7
:1011b000faff39001102780084824000850f500048
:1011c00018003900808f520003003a008308420063
:1011d00001007800070037000200e0000300320041
:1011e00083014000830f51000e0039001200980067
:1011f00090009800900090000100e000090032008b
:1012000010014000828f500006003a00c28a200080
:101210000009eb00100178001108410091009000d6
:101220001100980000000600889fbe0000047800ae
:10123000614580000100e0000200320001007800fa
:101240000d00370071458000e08a2000040037005f
:10125000910f5400250036000180e80091009000b5
:101260000100e000faff3a0010003700920f54002e
:101270001e0036000280e800100178000200e00045
:10128000faff3a001101780071458000e08a2000e1
:1012900004003700910f5400140036000180e8006c
:1012a00091009000828f5000faff3a00994580002b
:1012b000888f54000100310088047800090078000c
:1012c000480007000000e00004003a00888f540046
:1012d000050032008904d100f5ff370009187800b5
:1012e0009fff0700d2ff37000000eb004f04be0055
:1012f00000000600881f7800630440000800a10079
:101300008000eb00800f540021003600e30f5400f2
:1013100001003e004800200008007800c2ff0700de
:101320008000eb000000e00019003200900078001f
:101330009101780064815100880f51000300310051
:101340001101900002087800070037000881400072
:1013500002087800910190001301980010017800b4
:101360001109140088087800100178000000eb00d3
:101370000200e00004003200920190000300e0004f
:10138000010032000280e800604588008180e800aa
:10139000010078004f0478000000060002003700ca
:1013a0000304e0000600320000017800020078002b
:1013b000b041780081cf5100f9ff3a0001003700b9
:1013c0000001eb00020078000000060080007800b9
:1013d000010178003104e000fdff3a0000005100f7
:1013e00000000600800078000000eb000100e00033
:1013f0000500340001007800dbfc0700e10f40002d
:1014000001003a000000eb00000006000400fa00b2
:10141000889fbe008a9fbe008c1f78000004780061
:1014200001067800f80d9000780090008085550046
:1014300008089000808555001808900080855500a8
:101440002808900080855500380890008085550058
:1014500048089000808555000002220090bf9f0040
:1014600000032300a0bf9f00081090000028a300e5
:1014700015003a000b00e000130034000b05780063
:101480008a047800e20f5500010036002900200090
:10149000c801900009017800ee80570058009000c4
:1014a00003000100500498000000e0008c003200ae
:1014b0006808900009004000600c9800090555007c
:1014c0004240a900eeff3c00780190000200e000dd
:1014d0000c003400c80190008c0078005800900087
:1014e00003000100500498008080eb000000e00041
:1014f0007c003200e80890007800900000804000f6
:10150000600c9800880c90000900e0001100340085
:1015100009057800e28f5400010036002a002000ff
:10152000c80190000a017800ec8057005800900034
:1015300003000100500498000000e0006800320041
:10154000680890000a004000600c98008a845400eb
:10155000edff3700180990000200e0000c00340095
:10156000c8019000e80090005800900003000100be
:10157000500498008080eb000000e0005900320029
:10158000e80890001808900000804000600c980067
:10159000a80c90000900e000110034000905780053
:1015a000e28f5400010036002a002000c80190009c
:1015b0000a017800ec8057005800900003000100f9
:1015c000500498000000e0004500320068089000d8
:1015d0000a004000600c98008a845400edff370038
:1015e000380990000200e0000e003400e80090008e
:1015f0001808900080804000c801900058009000ba
:1016000003000100500498008080eb000000e0001f
:1016100034003200e8089000380890000080400054
:10162000600c9800c80c90000900e0001100340024
:1016300009057800e28f5400010036002a002000de
:10164000c80190000a017800ec8057005800900013
:1016500003000100500498000000e0002000320068
:10166000680890000a004000600c98008a845400ca
:10167000edff3700081090008000eb000028a30069
:10168000180032000b00e000160034008b047800d4
:1016900009057800e28f5400010036002a0020007e
:1016a000c80190000a017800ee80570058009000b1
:1016b00003000100500498000000e0000800320020
:1016c000680890000a004000600c98008a8454006a
:1016d0004240a900eeff3c008000eb000100370013
:1016e0008080eb00010078004f0678004f05be00b7
:1016f0004f04be000080fa000000060001087800d8
:101700000000060000c0da000000060000c0da0099
:101710000000060000c0da0000000600020ab9005e
:10172000001bb9000200b8008100420081004300a4
:0417300000000600af
:020000040000fa
:101734000d200000467200006f6e0000740000006f
:101744000d200000467200006f6e0000744c000013
:1017540065660000740000000d2000004672000061
:101764006f6e000074520000696700006874000026
:10177400000d0000204c00006566000074000000ad
:101784000d2000005269000067680000740000002a
:101794000d20000042610000636b000052690000ec
:1017a40067680000740000000d2000004261000022
:1017b400636b00004c65000066740000000d0000bf
:0c17c40020420000616300006b00000088
:020000040000fa
:1017d0000200fa00000f78000000000011118000e4
:1017e00000202000008060000000e000fbff3a00c5
:1017f0001e007800201188001e0078000080fa008a
:10180000000006000200fa00810007001e007800b8
:10181000e10f50000d003a00204080000000e00081
:1018200005003a00c202a800c222a800ca02a9000c
:10183000100020002040880020408000e10f500070
:1018400002003a00c222a9000428ef001e0078001e
:10185000ea0f50002b003200ea0f500007003e0054
:10186000e40f50005e003200e80f50003b003200f1
:10187000e20f50000d003200e4ff3700f00f50007f
:101880002b003200f00f500003003e00ec0f500020
:101890003d003200ddff3700f20f50000e00320035
:1018a000f40f500043003200d8ff3700a0b92800e1
:1018b000801f7800ecfb07008f87e900c202a900b7
:1018c000c222a800ca02a800c1122000c012200033
:1018d000970007004d00370020ba2800801f7800cd
:1018e000e1fb07008f87e900c202a900c222a8001d
:1018f000ca02a800c1122000800c20008c00070042
:1019000042003700e0ba2800801f7800d6fb0700ad
:101910008f87e900c202a900c222a800ca02a8005b
:10192000810c2000c0122000810007003700370022
:10193000b0bb2800801f7800cbfb07008f87e90031
:10194000c202a900c222a800ca02a800c112200037
:1019500040ed2f00760007002c00370020bc280047
:10196000801f7800c0fb07008f87e900c202a90032
:10197000c222a800ca02a80041ed2f00c012200018
:101980006b00070021003700a0bc2800801f7800f2
:10199000b5fb07008f87e900c202a900c222a80098
:1019a000ca02a80081f32f0040ed2f00600007005d
:1019b0001600370060bd2800801f7800aafb0700d2
:1019c0008f87e900c202a900c222a800ca02a800ab
:1019d00041ed2f0080f32f00550007000b0037006a
:1019e00010be2800801f78009ffb07008f87e9004a
:1019f000c202a900c222a800ca02a80041ed2f001d
:101a000040ed2f004a000700000000007fff370074
:101a10000000fa00130007003b0007003000070039
:101a200000b0240001002000190007009300070007
:101a30000080fa00000006000200fa005016800044
:101a40008080ea0000802f00008f60001e00780078
:101a50004b00de00000f78001e0078000080fa00c6
:101a6000000006000000fa00213a8000f0ff280084
:101a700000806000203a8800213a8000f08f2f001b
:101a800000806000203a88000080fa000000060014
:101a90000400fa00008fbe001e01be004418dd00e5
:101aa000cc10de00810070004410dd000001be009b
:101ab00000402200410f20004dfb0700000078008d
:101ac0000000e900401188002022ef002222ef00f0
:101ad00021e2a8002342a8000080fa0000000600ce
:101ae0000000fa0000022800200888000021ef0012
:101af000701a2600100888008460a9009460a8006d
:101b00000080fa00000006000000fa00e024ef0068
:101b1000e224ef0000f72f0000168800c0d72f0046
:101b2000401688006e20ef000080fa0000000600da
:101b30000400fa00000f7800110798001e009000c2
:101b40000000e00005003d00c442a8001e00900017
:101b50000000ea001007980001003700c442a90005
:101b60009e009000803e2000808f500002003400d4
:101b7000803e2000100798001e009000400e880054
:101b80001e0078000000e00003003d00c462a800d1
:101b90001e0fea0001003700c462a900803e200049
:101ba0009e007800808f500002003400803e2000ac
:101bb000000f78001e007800600f88000080fa0097
:101bc000000006000000fa00ac21ef00610d80006b
:101bd00000ff2f00008060005000b300600d8800ff
:101be000610d8000f0f32f00008060000060a00015
:101bf000600d8800ae21ef00b301a800b621ef0010
:101c0000bc21ef00803e2000000e8800c421ef00c0
:101c1000c821ef00ade1a8000080fa000000060036
:101c20000000fa00d021ef00810e800000ff2f009d
:101c3000008060005000b300800e8800810e80009c
:101c4000f0f32f00008060000060a000800e88008c
:101c5000d221ef00d701a800da21ef00e021ef0048
:101c6000803e2000200f8800e821ef00ec21ef00eb
:101c7000d1e1a8000080fa00000006000000fa0090
:101c8000e044a900e064a900e324a900c042a9003f
:101c9000c062a900c922a900c0e2a900c9ff0700cb
:0c1ca000dfff07000080fa0000000600d3
:020000040000fa
:101cac00060800000400000002000000010005000e
:101cbc00000000000008000006000000000000000a
:101ccc000a0800008800000002000000010000006b
:101cdc0000300800310830000830080030083000af
:101cec0008200800000000000000000000000000b8
:101cfc0000000000000000000000000000000000d8
:101d0c000002080001015800085908005808580042
:101d1c00085808005808480008000000000000009f
:101d2c0000000000000000000000000000000000a7
:101d3c000000000000000200080202008008810080
:101d4c0008800800800880000880080070080000e7
:101d5c000000000000000000000000000000000077
:101d6c000000000000000000000000000a08320023
:101d7c00085a0800000000000000000000000000ed
:101d8c0000000000b008000002000000000000008d
:101d9c00920800001a00000002000000686a6c0043
:101dac00747a4c00000001000002000004000800de
:101dbc0000100000000020002b2d2300300000003c
:101dcc00b208000002000000020000000400000045
:101ddc00ac0800000400000000000000b408000083
:0c1dec00020000000000000000000000e9
:020000040000fa
:0200000401f009
:04000000ffff0000fe
:020000040000fa
:0200000401f009
:04000800ffff0000f6
:020000040000fa
:0200000401f009
:04000c00f9ff0000f8
:020000040000fa
:0200000401f009
:0400100033ff0000ba
:020000040000fa
:0200000401f009
:040014005fff00008a
:020000040000fa
:0200000401f009
:04001800ffff0000e6
:020000040000fa
:0200000401f009
:04001c00fdff0000e4
:00000001FF
