:020000040000fa
:080000000002040000000000f2
:020000040000fa
:04000800d40200001e
:020000040000fa
:04000c00d40200001a
:020000040000fa
:04001000d402000016
:020000040000fa
:04001400d402000012
:020000040000fa
:04001800d40200000e
:020000040000fa
:04001c00d40200000a
:020000040000fa
:04002000d402000006
:020000040000fa
:04002400d402000002
:020000040000fa
:04002800d4020000fe
:020000040000fa
:04002c00d4020000fa
:020000040000fa
:04003000d4020000f6
:020000040000fa
:04003400d4020000f2
:020000040000fa
:04003800d4020000ee
:020000040000fa
:04003c00d4020000ea
:020000040000fa
:04004000d4020000e6
:020000040000fa
:04004400d4020000e2
:020000040000fa
:04004800d4020000de
:020000040000fa
:04004c00d4020000da
:020000040000fa
:04005000d4020000d6
:020000040000fa
:04005400d4020000d2
:020000040000fa
:04005800d4020000ce
:020000040000fa
:04005c00d4020000ca
:020000040000fa
:04006000d4020000c6
:020000040000fa
:04006400d4020000c2
:020000040000fa
:04006800d4020000be
:020000040000fa
:04006c00d4020000ba
:020000040000fa
:04007000d4020000b6
:020000040000fa
:04007400d4020000b2
:020000040000fa
:04007800d4020000ae
:020000040000fa
:04007c00d4020000aa
:020000040000fa
:04008000d4020000a6
:020000040000fa
:04008400d4020000a2
:020000040000fa
:04008800d40200009e
:020000040000fa
:04008c00d40200009a
:020000040000fa
:04009000d402000096
:020000040000fa
:04009400d402000092
:020000040000fa
:04009800d40200008e
:020000040000fa
:04009c00d40200008a
:020000040000fa
:0400a000d402000086
:020000040000fa
:0400a400d402000082
:020000040000fa
:0400a800d40200007e
:020000040000fa
:0400ac00d40200007a
:020000040000fa
:0400b000d402000076
:020000040000fa
:0400b400d402000072
:020000040000fa
:0400b800d40200006e
:020000040000fa
:0400bc00d40200006a
:020000040000fa
:0400c000d402000066
:020000040000fa
:0400c400d402000062
:020000040000fa
:0400c800d40200005e
:020000040000fa
:0400cc00d40200005a
:020000040000fa
:0400d000d402000056
:020000040000fa
:0400d400d402000052
:020000040000fa
:0400d800d40200004e
:020000040000fa
:0400dc00d40200004a
:020000040000fa
:0400e000d402000046
:020000040000fa
:0400e400d402000042
:020000040000fa
:0400e800d40200003e
:020000040000fa
:0400ec00d40200003a
:020000040000fa
:0400f000d402000036
:020000040000fa
:0400f400d402000032
:020000040000fa
:0400f800d40200002e
:020000040000fa
:0400fc00d40200002a
:020000040000fa
:04010000d402000025
:020000040000fa
:04010400d402000021
:020000040000fa
:04010800d40200001d
:020000040000fa
:04010c00d402000019
:020000040000fa
:04011000d402000015
:020000040000fa
:04011400d402000011
:020000040000fa
:04011800d40200000d
:020000040000fa
:04011c00d402000009
:020000040000fa
:04012000d402000005
:020000040000fa
:04012400d402000001
:020000040000fa
:04012800d4020000fd
:020000040000fa
:04012c00d4020000f9
:020000040000fa
:04013000d4020000f5
:020000040000fa
:04013400d4020000f1
:020000040000fa
:04013800d4020000ed
:020000040000fa
:04013c00d4020000e9
:020000040000fa
:04014000d4020000e5
:020000040000fa
:04014400d4020000e1
:020000040000fa
:04014800d4020000dd
:020000040000fa
:04014c00d4020000d9
:020000040000fa
:04015000d4020000d5
:020000040000fa
:04015400d4020000d1
:020000040000fa
:04015800d4020000cd
:020000040000fa
:04015c00d4020000c9
:020000040000fa
:04016000d4020000c5
:020000040000fa
:04016400d4020000c1
:020000040000fa
:04016800d4020000bd
:020000040000fa
:04016c00d4020000b9
:020000040000fa
:04017000d4020000b5
:020000040000fa
:04017400d4020000b1
:020000040000fa
:04017800d4020000ad
:020000040000fa
:04017c00d4020000a9
:020000040000fa
:04018000d4020000a5
:020000040000fa
:04018400d4020000a1
:020000040000fa
:04018800d40200009d
:020000040000fa
:04018c00d402000099
:020000040000fa
:04019000d402000095
:020000040000fa
:04019400d402000091
:020000040000fa
:04019800d40200008d
:020000040000fa
:04019c00d402000089
:020000040000fa
:0401a000d402000085
:020000040000fa
:0401a400d402000081
:020000040000fa
:0401a800d40200007d
:020000040000fa
:0401ac00d402000079
:020000040000fa
:04020800d40200001c
:020000040000fa
:04020c00d402000018
:020000040000fa
:04021000d402000014
:020000040000fa
:04021400d402000010
:020000040000fa
:04021800d40200000c
:020000040000fa
:04021c00d402000008
:020000040000fa
:04022000d402000004
:020000040000fa
:04022400d402000000
:020000040000fa
:04022800d4020000fc
:020000040000fa
:04022c00d4020000f8
:020000040000fa
:04023000d4020000f4
:020000040000fa
:04023400d4020000f0
:020000040000fa
:04023800d4020000ec
:020000040000fa
:04023c00d4020000e8
:020000040000fa
:04024000d4020000e4
:020000040000fa
:04024400d4020000e0
:020000040000fa
:04024800d4020000dc
:020000040000fa
:04024c00d4020000d8
:020000040000fa
:04025000d4020000d4
:020000040000fa
:04025400d4020000d0
:020000040000fa
:04025800d4020000cc
:020000040000fa
:04025c00d4020000c8
:020000040000fa
:04026000d4020000c4
:020000040000fa
:04026400d4020000c0
:020000040000fa
:04026800d4020000bc
:020000040000fa
:04026c00d4020000b8
:020000040000fa
:04027000d4020000b4
:020000040000fa
:04027400d4020000b0
:020000040000fa
:04027800d4020000ac
:020000040000fa
:04027c00d4020000a8
:020000040000fa
:04028000d4020000a4
:020000040000fa
:04028400d4020000a0
:020000040000fa
:04028800d40200009c
:020000040000fa
:04028c00d402000098
:020000040000fa
:04029000d402000094
:020000040000fa
:04029400d402000090
:020000040000fa
:04029800d40200008c
:020000040000fa
:04029c00d402000088
:020000040000fa
:0402a000d402000084
:020000040000fa
:0402a400d402000080
:020000040000fa
:0402a800d40200007c
:020000040000fa
:0402ac00d402000078
:020000040000fa
:0402b000d402000074
:020000040000fa
:0402b400d402000070
:020000040000fa
:0402b800d40200006c
:020000040000fa
:0402bc00d402000068
:020000040000fa
:0402c000d402000064
:020000040000fa
:0402c400d402000060
:020000040000fa
:0402c800d40200005c
:020000040000fa
:0402cc00d402000058
:020000040000fa
:0402d000d402000054
:020000040000fa
:0402d400d402000050
:020000040000fa
:0402d800d40200004c
:020000040000fa
:0402dc00d402000048
:020000040000fa
:0402e000d402000044
:020000040000fa
:0402e400d402000040
:020000040000fa
:0402e800d40200003c
:020000040000fa
:0402ec00d402000038
:020000040000fa
:0402f000d402000034
:020000040000fa
:0402f400d402000030
:020000040000fa
:0402f800d40200002c
:020000040000fa
:0402fc00d402000028
:020000040000fa
:04030000d402000023
:020000040000fa
:04030400d40200001f
:020000040000fa
:04030800d40200001b
:020000040000fa
:04030c00d402000017
:020000040000fa
:04031000d402000013
:020000040000fa
:04031400d40200000f
:020000040000fa
:04031800d40200000b
:020000040000fa
:04031c00d402000007
:020000040000fa
:04032000d402000003
:020000040000fa
:04032400d4020000ff
:020000040000fa
:04032800d4020000fb
:020000040000fa
:04032c00d4020000f7
:020000040000fa
:04033000d4020000f3
:020000040000fa
:04033400d4020000ef
:020000040000fa
:04033800d4020000eb
:020000040000fa
:04033c00d4020000e7
:020000040000fa
:04034000d4020000e3
:020000040000fa
:04034400d4020000df
:020000040000fa
:04034800d4020000db
:020000040000fa
:04034c00d4020000d7
:020000040000fa
:04035000d4020000d3
:020000040000fa
:04035400d4020000cf
:020000040000fa
:04035800d4020000cb
:020000040000fa
:04035c00d4020000c7
:020000040000fa
:04036000d4020000c3
:020000040000fa
:04036400d4020000bf
:020000040000fa
:04036800d4020000bb
:020000040000fa
:04036c00d4020000b7
:020000040000fa
:04037000d4020000b3
:020000040000fa
:04037400d4020000af
:020000040000fa
:04037800d4020000ab
:020000040000fa
:04037c00d4020000a7
:020000040000fa
:04038000d4020000a3
:020000040000fa
:04038400d40200009f
:020000040000fa
:04038800d40200009b
:020000040000fa
:04038c00d402000097
:020000040000fa
:04039000d402000093
:020000040000fa
:04039400d40200008f
:020000040000fa
:04039800d40200008b
:020000040000fa
:04039c00d402000087
:020000040000fa
:0403a000d402000083
:020000040000fa
:0403a400d40200007f
:020000040000fa
:0403a800d40200007b
:020000040000fa
:0403ac00d402000077
:020000040000fa
:10040000ef8a20000eff20000e018800000000008f
:10041000000020000000e000020032000001200087
:100420002002880014000700d60007000000e0004a
:1004300003003a0020d02000010020000200370015
:100440000000200001002000810f70000100320038
:1004500014000700000020000000e000020032004d
:100460000000020000000000b60b020000000000c7
:100470000040da000000fe004440a900e000200037
:100480000000e0000300320000002000a00188000e
:100490004440a800000006008a1f78008b1f7800e7
:1004a0000000060091018800800478000000eb0045
:1004b0001a003700e284440032a0b4009905ba0063
:1004c000e284440032a0b4009906ba00e2844400f9
:1004d00032a0b4000006eb00476fde00fd07b2005b
:1004e000636ce10003003a00ebff07000000eb0043
:1004f0000a003700606ce10004003a00005deb0088
:100500008b05e900fdff3e00040037006168e10053
:10051000010032000086eb000b00070019c7ba008b
:100520001905ba000e04e00003003a000a00e000da
:10053000e0ff3a0000000600fe07b2009e018800be
:100540008a047800f5ff3700395dba008b05e900b1
:100550000c003200295dba008b05e900080032006a
:100560000c00e00003003a00e284440032a0b40032
:10057000f5ff370019ddba008b05e900faff3a00f4
:100580008904e800e184440032a0b40000000600c1
:10059000000000000000000000000000000000005b
:1005a00000000000000000000040da000000fe0033
:1005b0000a00fa0011002000b1bf9f00c0bf9f00d9
:1005c0006a805700350407004fb897000080fa0092
:1005d000000006000a00fa00e20f500034003e005e
:1005e00000408000e10f500003003200e20f500095
:1005f00011003a000c003700032220000300e00045
:1006000001003a000040da002002e200020035005a
:100610002822ef0021e2a8002342ab000d003a009f
:100620002342a8000b003700032320000300e00052
:1006300001003a000040da003002e200020035001a
:100640003822ef0031e2a8003342ab0001003a004b
:100650003342a800820178000b0037003102fb0012
:10066000e10f500004003a002322ab00feff3a00e5
:1006700024118800030037003322ab00feff3a004c
:10068000a41188008301e9000300e000f3ff3a00b1
:10069000e10f500003003a002302ab00feff3200de
:1006a0000b0037003302ab00feff320008003700ba
:1006b00033002000b3bf9f00c0bf9f00d1bf9f0089
:1006c000e2bf9f006a805700f60307006fb99700ea
:1006d000020078000080fa00000006000a00fa001c
:1006e00051002000b1bf9f00c0bf9f006a8057002b
:1006f000ee0307005fb897000080fa0000000600d4
:10070000889fbe0080047800604580000000e00003
:1007100004003a000e0007000084eb000000e00037
:1007200008003500684580000900e000050032003f
:1007300009004400060007000000e00001003d0041
:100740000084eb00080078004f04be0000000600a3
:10075000800078000100e00003003a000000200063
:1007600060458800000005000080eb0002002000ca
:10077000828f500002003e00614588000000eb00bf
:1007800000000600000005006022b80006022000fc
:100790000000d0008180d2000482d2008582d20085
:1007a0000000a0000202520083825a0003003100c0
:1007b0000202420083824a000000a1000603e90011
:1007c000f3ff3a0000000600889fbe000004780096
:1007d000010078008204780088017800090178001f
:1007e000110020000e000700890f500001003200a8
:1007f0000004eb00080078004f04be000000060073
:100800000000fa00e88157004fb99700a18220004c
:10081000403e2000570107000080fa00000006005b
:10082000889fbe008a9fbe008c9fbe008e1f7800ee
:100830000006780001047800020078008304780044
:100840000881b900020778000200e000420032008f
:100850000800e0004100320082057800c9009000e5
:1008600069009000808f5000040039000900780072
:10087000500007000000e000290035000040200083
:10088000190060000a0032000b017800a10020006e
:100890000c00780036000700800678000d00e000ac
:1008a00006003200610516000a8546000400370084
:1008b0000b0578008006eb00010037000b0578007f
:1008c00049009000e9009000808050008a8f50001d
:1008d00002003100010578008006eb000a01780073
:1008e0008c0078002c0007008a8555004900900094
:1008f0000a004000c00498000d00e000040032002f
:1009000009007800d50007000000e00004003a006c
:100910000b00e000020032000a064600cfff37005d
:1009200000802000190060000200320009007800f9
:10093000ca00070000c02000190060000200320059
:1009400049009000e00498008b0557001100090051
:100950008885d800010037000000eb004f077800c1
:100960004f06be004f05be004f04be00000006004b
:1009700003003700b0cf1000050032000201e9008b
:10098000800178000200e000faff3a000000050054
:1009900003007800000006008001780002003700a4
:1009a000b15978000201e9000200e000fcff3a00c2
:1009b00000000600889fbe008a1f780000047800af
:1009c000c8009000680190000000eb00828f50008a
:1009d0003c00390018007800220029000201600064
:1009e000e20f510007003200012024000000e00067
:1009f00001003d0001202000008c70000080eb0011
:100a0000300037000200260002006000820f500014
:100a100009003a0038009000808f5000060039002d
:100a2000080078008d000700800078000080eb004f
:100a30000100e00023003a001805780000c0200003
:100a40000000650018003a00a80490006002200031
:100a500008004000808f540013003a00002020005e
:100a60000a020700200498000000e00005003a0098
:100a700029049800490498008904e8003904980082
:100a8000080037000a60a0000a0c780040049800b3
:100a9000012020008080400031049800400c980024
:100aa000500c98000c00070028009000500498009b
:100ab000380090006004980000002600180c7000b8
:100ac0000000eb004f0578004f04be000000060058
:100ad000e06020009b003700881f7800888a200093
:100ae0001804e00003003a00f9ff070020c0b3003b
:100af000004c78004f04780000000600889fbe007c
:100b00000004780008007800540007008004780092
:100b1000000420001800600002003200280090004d
:100b2000750107000000eb00200498003840900099
:100b30000004e000050035000000fb009cfe0700fb
:100b40000000e000010032008084eb0018109000eb
:100b50000000e00008003200e0fe07000000e000b6
:100b6000010032008084eb00181090006201070041
:100b70000000eb001014980000082000180060002e
:100b8000150032000001eb006000b800a3872000d0
:100b90000202d00063027a00880f520005003a007a
:100ba0000000400081804800008041000008eb0008
:100bb0000600370061004000e08048000201e800c4
:100bc000e80f5000e08f5800f0ff3a00080078006e
:100bd000490107000e003700000c780000c0eb0050
:100be0003044980060022000080040002004980073
:100bf0004004980050049800400c9800600498004d
:100c0000500c98007004980076004400000c980086
:100c1000090078004f04be0000000600881f78001d
:100c20000004eb006140b800e2ff2f00f3ff2f004b
:100c3000a002070082882000620078000000e00027
:100c400001003200adff07000804e800e80f54007f
:100c5000f4ff3a004f04780000000600889fbe00b1
:100c6000000478000800e0000e003a008004eb0069
:100c70008800d000a0872000610078000000e0001c
:100c800004003200f5ff07000000e00001003d0015
:100c90008084eb000804e800e80f5400f4ff3a00f9
:100ca0002500370000002200180060008004eb00df
:100cb00021003200a80490000f0037000901510004
:100cc000384090000000fb008900780041fe0700da
:100cd0000000e00007003c0028009000400498005d
:100ce00060049800500c98001890a0008084eb00dd
:100cf000110037008084440048019000828f540026
:100d0000eeff390028009000400498009800780019
:100d100002c020000281600001003a00380090000b
:100d200001e8a300020032006004980001003700cf
:100d3000500c98008004eb00090078004f04be00be
:100d400000000600010020000100e0000800320061
:100d5000010080000100e000050032008100e90090
:100d6000010088008100d0000200800000b17800fe
:100d7000000006006200fa00889fbe008a1f78000b
:100d80000005780081047800020478008300780070
:100d900080f92f000f0040003e0207009a979f0045
:100da000a9979f000000eb00b09f9f001885fb00f3
:100db0008a04fb000a05ea004f55de0050022000bd
:100dc000808f54000d003200e10f55000b003a00f7
:100dd0000a017800880078002f9097009f91970073
:100de00003000100a0979f000000e0008e00320089
:100df0003f9897000000e800b09f9f000a0444005d
:100e000050022000808f5400040032000900e000ee
:100e1000e6ff3a003f989700840037000000eb009f
:100e2000909f9f00809f9f00f0979f00e0979f00fa
:100e3000d0979f00c0979f0007003700e1892000ee
:100e4000010050000000400021892000610078006e
:100e5000df98970001007000d09f9f008804780001
:100e600009047800384578008a00fb00e0892000fa
:100e7000300107000000e000f0ff3a00a1c2b3001b
:100e8000814f55000e003a00cf8897000180e9009d
:100e9000c08f9f0010007800c09f9f000000e000fe
:100ea00005003d000000ea00c09f9f005f9897008a
:100eb0000020a000d09f9f000904e8000f00370029
:100ec000c09f9f000000eb0005003700f2ff2700e5
:100ed000820f5000020032006a01b9000280400017
:100ee0000904780088047800b900fb000103b10010
:100ef000e98f5000f5ff3600c09f9f00e0c2b300ad
:100f0000984f1000020032000080eb0019003700fb
:100f1000a0c2b300d84f100007003a00cf88970056
:100f20000180e900c08f9f0010007800a09f9f0003
:100f30000804e800100037000000eb00a09f9f00ad
:100f40008800780005003700f3ff2700830f50006a
:100f5000020032006a02b900040041000104780076
:100f6000880078003101fb000203b100e90f510055
:100f7000f5ff3600a09f9f00984478008900fb0091
:100f8000a0882000eb0007000000e0000200320013
:100f90000804e800010037008044eb00c97f9f008f
:100fa00080c6b30080cf540004003a0098cf1400ec
:100fb0000a003a006640500006003700c0c6b30081
:100fc00080cf540005003a0098cf140003003a0087
:100fd00065404000c07f9f000804e8001801fb0046
:100fe000e3fb2f008f81410081f92f008f804000ab
:100ff000a0f92f000f004000100007000000e000e3
:1010000009003a00e1fb2f008f804000a0f92f007b
:101010000f004000e30007000000e0000200350080
:101020000804e80061ff37000080eb004f057800fe
:101030004f04be000080fa0000000600889fbe003a
:101040008a1f78000004780030c5b300804f51003b
:101050000800320030c7b300804f51000500320055
:1010600051c2b30078009000814f510017003a0040
:10107000140037001180e90080087800100578001e
:101080006a049800d80c90000900e00004003d00bc
:101090000a007800b30007008004780007003700da
:1010a000090178008000eb000a00780030fe07009c
:1010b0000000e000010032008a045000190c980082
:1010c00009003700827178000500370080814100f7
:1010d0000204e00001003a000141780082497800f2
:1010e0000000e800700498000000eb004f05780055
:1010f0004f04be00000006000000e0002f00320098
:10110000c0017800e38f51002c0036000308a300d3
:101110002a003a00314580000100e0000200320060
:10112000810f500004003100110098003045880004
:101130001600370082007800110190000200e000e4
:1011400002003200800f5100faff390011027800ce
:1011500084824000850f500018003900808f5200b3
:1011600003003a00830842000100780007003700be
:101170000200e0000300320083014000830f5100b1
:101180000e00390012009800900098009000900026
:101190000100e0000900320010014000828f500081
:1011a00006003a00428a20000009eb001001780096
:1011b0001108410091009000110098000000060005
:1011c000889fbe0000047800214580000100e000f7
:1011d00002003200010078000d0037003145800028
:1011e000608a200004003700910f5400250036006b
:1011f0000180e800910090000100e000faff3a0051
:1012000010003700920f54001e0036000280e800e4
:10121000100178000200e000faff3a0011017800a6
:1012200031458000608a200004003700910f54008f
:10123000140036000180e80091009000828f500079
:10124000faff3a0059458000888f540001003100b0
:101250008804780009007800480007000000e000da
:1012600004003a00888f5400050032008904d10040
:10127000f5ff3700091878009fff0700d2ff3700fd
:101280000000eb004f04be0000000600881f78003d
:10129000630440000800a1008000eb00800f5400b0
:1012a00021003600e30f540001003e0048002000fa
:1012b00008007800c2ff07008000eb000000e0009b
:1012c000190032009000780091017800648151008b
:1012d000880f5100030031001101900002087800ce
:1012e0000700370008814000020878009101900053
:1012f0001301980010017800110914008808780083
:10130000100178000000eb000200e0000400320051
:10131000920190000300e000010032000280e8002a
:10132000204588008180e800010078004f047800a3
:1013300000000600020037000304e000060032004f
:101340000001780002007800b041780081cf5100a0
:10135000f9ff3a00010037000001eb0002007800bd
:101360000000060080007800010178003104e000f0
:10137000fdff3a00000051000000060080007800e8
:101380000000eb000100e0000500340001007800df
:10139000dbfc0700e10f400001003a000000eb0019
:1013a000000006000400fa00889fbe008a9fbe006d
:1013b0008c1f78000004780001067800f80d90007a
:1013c00078009000808555000808900080855500c1
:1013d00018089000808555002808900080855500e9
:1013e0003808900080855500480890008085550099
:1013f0000002220090bf9f0000032300a0bf9f00b7
:10140000081090000028a30015003a000b00e0002f
:10141000130034000b0578008a047800e20f5500b1
:101420000100360029002000c80190000901780061
:10143000ee8057005800900003000100500498000f
:101440000000e0008c0032006808900009004000b5
:10145000600c9800090555004240a900eeff3c00d1
:10146000780190000200e0000c003400c8019000f8
:101470008c00780058009000030001005004980090
:101480008080eb000000e0007c003200e808900063
:101490007800900000804000600c9800880c90005c
:1014a0000900e0001100340009057800e28f5400c3
:1014b000010036002a002000c80190000a017800cf
:1014c000ec80570058009000030001005004980081
:1014d0000000e00068003200680890000a00400048
:1014e000600c98008a845400edff370018099000c2
:1014f0000200e0000c003400c8019000e8009000f9
:101500005800900003000100500498008080eb0018
:101510000000e00059003200e80890001808900030
:1015200000804000600c9800a80c90000900e000ca
:101530001100340009057800e28f540001003600e4
:101540002a002000c80190000a017800ec805700b2
:101550005800900003000100500498000000e000d3
:1015600045003200680890000a004000600c9800b6
:101570008a845400edff3700380990000200e00033
:101580000e003400e80090001808900080804000b1
:10159000c80190005800900003000100500498001a
:1015a0008080eb000000e00034003200e80890008a
:1015b0003808900000804000600c9800c80c900033
:1015c0000900e0001100340009057800e28f5400a2
:1015d000010036002a002000c80190000a017800ae
:1015e000ec80570058009000030001005004980060
:1015f0000000e00020003200680890000a0040006f
:10160000600c98008a845400edff370008109000a9
:101610008000eb000028a300180032000b00e0005f
:10162000160034008b04780009057800e28f54001e
:10163000010036002a002000c80190000a0178004d
:10164000ee805700580090000300010050049800fd
:101650000000e00008003200680890000a00400026
:10166000600c98008a8454004240a900eeff3c00c0
:101670008000eb00010037008080eb000100780063
:101680004f0678004f05be004f04be000080fa00f0
:1016900000000600010878000000060000c0da0023
:1016a0000000060000c0da000000060000c0da00fa
:1016b00000000600020ab900001bb9000200b800d1
:0c16c00081004200810043000000060091
:020000040000fa
:1016cc000d660000726f00006e740000000d0000cb
:0c16dc0053740000617400006500000001
:020000040000fa
:1016e8000400fa00008fbe001e01be004418dd0091
:1016f800cc10de00810070004410dd000001be0047
:1017080000402200410f20001dfc07000000780067
:101718000000e9004011880000002800001188003e
:1017280000402000101188000080fa000000060028
:101738000200fa00000f780000000000111180007c
:1017480000202000008060000000e000fbff3a005d
:101758001e007800201188001e0078000080fa0022
:10176800000006000200fa00213a8000f0ff28007d
:1017780000806000203a8800213a8000f08f2f0016
:1017880000806000203a8800e024ef00e224ef00a7
:1017980000f72f0000168800c0d72f0040168800d9
:1017a8006e20ef0000b0240001002000ccff0700ed
:1017b80087000700000f78001e007800ea0f50002d
:1017c8000d003200ea0f50000d003e00e40f5000fb
:1017d8000d003200e80f50000d003200e20f5000fb
:1017e8000c003a0060b62800801f780002fc070051
:1017f8008f87e90007003700000000000500370068
:10180800000000000300370000000000010037005e
:101818000000000051168000004020000080600099
:101828000000e00003003200c222a800ca02a9009a
:1018380002003700c222a900ca02a800511680007f
:1018480000802000008060000000e00026003200d8
:101858005116800000002100008060000000e000b8
:1018680021003a00c222a80051168000000024007e
:10187800008060000000e000070032005116800080
:1018880000002200008060000000e00002003a0032
:1018980020012000000f780051168000000022006f
:1018a800008060000000e0000c003200511680004b
:1018b80000002400008060000000e00007003a00fb
:1018c800a0002000000f7800d0b62800801f780004
:1018d800c9fb07008f87e900ca22a8002000200062
:1018e800000f780002003700c222a900ca22a9000e
:1018f8005116800000002100008060000000e00018
:101908002100320051168000008020000080600015
:101918000000e0001c003a00c222a8005116800016
:1019280000002400008060000000e0000700320092
:101938005116800000002200008060000000e000d6
:1019480002003a0040012000000f78005116800084
:1019580000002200008060000000e0000700320064
:101968005116800000002400008060000000e000a4
:1019780002003a00c0002000000f7800400020005c
:10198800000f780001003700c222a900511680001c
:1019980000002200008060000000e0000200320029
:1019a800c222a80001003700c222a90051168000f7
:1019b80000002400008060000000e0000200320007
:1019c800c222a8007aff3700c222a90078ff370098
:1019d8000200fa00501680008080ea0000802f0084
:1019e800008f60001e0078004b00de00000f7800ba
:0c19f8001e0078000080fa0000000600cd
:020000040000fa
:101a040000080000020000000200000001000000c5
:101a1400020800008800000002000000010000002d
:101a24000028080029082800082808002808280099
:101a3400081808000000000000000000000000007a
:101a44000000000000000000000000000000000092
:101a5400000208000101500008510800500850001d
:101a64000850080050084000080000000000000072
:101a74000000000000000000000000000000000062
:101a8400000000000000020008020200780879004b
:101a940008780800780878000878080068080000ca
:101aa4000000000000000000000000000000000032
:101ab40000000000000000000000000002082a00ee
:101ac40008520800000000000000000000000000b0
:101ad40000000000a8080000020000000000000050
:101ae4008a0800001a00000002000000686a6c0006
:101af400747a4c0000000100000200000400080099
:101b040000100000000020002b2d230030000000f6
:101b1400aa08000002000000020000000400000007
:101b2400a40800000400000000000000ac0800004d
:0c1b3400020000000000000000000000a3
:020000040000fa
:0200000401f009
:04000000ffff0000fe
:020000040000fa
:0200000401f009
:04000800ffff0000f6
:020000040000fa
:0200000401f009
:04000c00f9ff0000f8
:020000040000fa
:0200000401f009
:0400100033ff0000ba
:020000040000fa
:0200000401f009
:040014005fff00008a
:020000040000fa
:0200000401f009
:04001800ffff0000e6
:020000040000fa
:0200000401f009
:04001c00fdff0000e4
:00000001FF
